{"abi":[{"type":"constructor","inputs":[{"name":"initialOwner","type":"address","internalType":"address"},{"name":"_vestingAddress","type":"address","internalType":"address"},{"name":"_tokenX","type":"address","internalType":"address"},{"name":"_tokenUsdt","type":"address","internalType":"address"}],"stateMutability":"nonpayable"},{"type":"function","name":"depositUSDTandReciveToken","inputs":[{"name":"_amount","type":"uint256","internalType":"uint256"}],"outputs":[],"stateMutability":"nonpayable"},{"type":"function","name":"getBalance","inputs":[{"name":"_tokenAddress","type":"address","internalType":"address"}],"outputs":[{"name":"","type":"uint256","internalType":"uint256"}],"stateMutability":"view"},{"type":"function","name":"owner","inputs":[],"outputs":[{"name":"","type":"address","internalType":"address"}],"stateMutability":"view"},{"type":"function","name":"pause","inputs":[],"outputs":[],"stateMutability":"nonpayable"},{"type":"function","name":"paused","inputs":[],"outputs":[{"name":"","type":"bool","internalType":"bool"}],"stateMutability":"view"},{"type":"function","name":"renounceOwnership","inputs":[],"outputs":[],"stateMutability":"nonpayable"},{"type":"function","name":"tokenXBalances","inputs":[{"name":"","type":"address","internalType":"address"}],"outputs":[{"name":"","type":"uint256","internalType":"uint256"}],"stateMutability":"view"},{"type":"function","name":"transferOwnership","inputs":[{"name":"newOwner","type":"address","internalType":"address"}],"outputs":[],"stateMutability":"nonpayable"},{"type":"function","name":"unpause","inputs":[],"outputs":[],"stateMutability":"nonpayable"},{"type":"function","name":"usdtBalances","inputs":[{"name":"","type":"address","internalType":"address"}],"outputs":[{"name":"","type":"uint256","internalType":"uint256"}],"stateMutability":"view"},{"type":"function","name":"withdraw","inputs":[{"name":"_tokenAddress","type":"address","internalType":"address"}],"outputs":[],"stateMutability":"nonpayable"},{"type":"event","name":"OwnershipTransferred","inputs":[{"name":"previousOwner","type":"address","indexed":true,"internalType":"address"},{"name":"newOwner","type":"address","indexed":true,"internalType":"address"}],"anonymous":false},{"type":"event","name":"Paused","inputs":[{"name":"account","type":"address","indexed":false,"internalType":"address"}],"anonymous":false},{"type":"event","name":"Unpaused","inputs":[{"name":"account","type":"address","indexed":false,"internalType":"address"}],"anonymous":false},{"type":"event","name":"dexDeposit","inputs":[{"name":"beneficiary","type":"address","indexed":true,"internalType":"address"},{"name":"amount","type":"uint256","indexed":true,"internalType":"uint256"},{"name":"tokenToReceive","type":"uint256","indexed":true,"internalType":"uint256"}],"anonymous":false},{"type":"error","name":"AddressEmptyCode","inputs":[{"name":"target","type":"address","internalType":"address"}]},{"type":"error","name":"AddressInsufficientBalance","inputs":[{"name":"account","type":"address","internalType":"address"}]},{"type":"error","name":"EnforcedPause","inputs":[]},{"type":"error","name":"ExpectedPause","inputs":[]},{"type":"error","name":"FailedInnerCall","inputs":[]},{"type":"error","name":"OwnableInvalidOwner","inputs":[{"name":"owner","type":"address","internalType":"address"}]},{"type":"error","name":"OwnableUnauthorizedAccount","inputs":[{"name":"account","type":"address","internalType":"address"}]},{"type":"error","name":"ReentrancyGuardReentrantCall","inputs":[]},{"type":"error","name":"SafeERC20FailedOperation","inputs":[{"name":"token","type":"address","internalType":"address"}]}],"bytecode":{"object":"0x60e060405234801561000f575f80fd5b50604051610b9c380380610b9c83398101604081905261002e9161011a565b60015f819055805460ff19169055836001600160a01b03811661006a57604051631e4fbdf760e01b81525f600482015260240160405180910390fd5b610073816100a6565b506001600160a01b03918216608052811660a0521660c0819052600280546001600160a01b03191690911790555061016b565b600180546001600160a01b03838116610100818102610100600160a81b031985161790945560405193909204169182907f8be0079c531659141344cd1fd0a4f28419497f9722a3daafe3b4186f6b6457e0905f90a35050565b80516001600160a01b0381168114610115575f80fd5b919050565b5f805f806080858703121561012d575f80fd5b610136856100ff565b9350610144602086016100ff565b9250610152604086016100ff565b9150610160606086016100ff565b905092959194509250565b60805160a05160c051610a036101995f395f50505f8181610281015261037201525f6103c00152610a035ff3fe608060405234801561000f575f80fd5b50600436106100a6575f3560e01c8063715018a61161006e578063715018a61461012e5780638456cb59146101365780638da5cb5b1461013e578063d148e25f14610167578063f2fde38b1461017a578063f8b2cb4f1461018d575f80fd5b80633114ca69146100aa5780633f4ba83a146100dc57806351cff8d9146100e6578063582489cb146100f95780635c975abb14610118575b5f80fd5b6100c96100b83660046108f0565b60036020525f908152604090205481565b6040519081526020015b60405180910390f35b6100e46101a0565b005b6100e46100f43660046108f0565b6101b2565b6100c96101073660046108f0565b60046020525f908152604090205481565b60015460ff1660405190151581526020016100d3565b6100e4610233565b6100e4610244565b60015461010090046001600160a01b03166040516001600160a01b0390911681526020016100d3565b6100e4610175366004610916565b610254565b6100e46101883660046108f0565b61048a565b6100c961019b3660046108f0565b6104c4565b6101a8610532565b6101b0610565565b565b6101ba610532565b6040516370a0823160e01b8152306004820152819061022f90829033906001600160a01b038316906370a0823190602401602060405180830381865afa158015610206573d5f803e3d5ffd5b505050506040513d601f19601f8201168201806040525081019061022a919061092d565b6105b7565b5050565b61023b610532565b6101b05f61061b565b61024c610532565b6101b0610674565b61025c6106af565b6102646106d7565b604051636eb1769f60e11b81523360048201523060248201525f907f00000000000000000000000000000000000000000000000000000000000000006001600160a01b03169063dd62ed3e90604401602060405180830381865afa1580156102ce573d5f803e3d5ffd5b505050506040513d601f19601f820116820180604052508101906102f2919061092d565b9050818110156103495760405162461bcd60e51b815260206004820152601960248201527f436865636b2074686520746f6b656e20616c6c6f77616e63650000000000000060448201526064015b60405180910390fd5b335f9081526004602052604081208054849290610367908490610958565b9091555061039990507f00000000000000000000000000000000000000000000000000000000000000003330856106fb565b5f6103a560648461096b565b6103b49064e8d4a5100061096b565b6002549091506103ef907f0000000000000000000000000000000000000000000000000000000000000000906001600160a01b0316836105b7565b6002546040516319b7efed60e21b8152600481018390523360248201526001600160a01b03909116906366dfbfb4906044015f604051808303815f87803b158015610438575f80fd5b505af115801561044a573d5f803e3d5ffd5b505060405183925085915033907f9117b281f143aac8ea1f96c9be348224f27a9e25aa3806c4c651243e1c80b734905f90a4505061048760015f55565b50565b610492610532565b6001600160a01b0381166104bb57604051631e4fbdf760e01b81525f6004820152602401610340565b6104878161061b565b6040516370a0823160e01b81523060048201525f906001600160a01b038316906370a0823190602401602060405180830381865afa158015610508573d5f803e3d5ffd5b505050506040513d601f19601f8201168201806040525081019061052c919061092d565b92915050565b6001546001600160a01b036101009091041633146101b05760405163118cdaa760e01b8152336004820152602401610340565b61056d61073a565b6001805460ff191690557f5db9ee0a495bf2e6ff9c91a7834c1ba4fdd244a5e8aa4e537bd38aeae4b073aa335b6040516001600160a01b03909116815260200160405180910390a1565b6040516001600160a01b0383811660248301526044820183905261061691859182169063a9059cbb906064015b604051602081830303815290604052915060e01b6020820180516001600160e01b03838183161783525050505061075d565b505050565b600180546001600160a01b03838116610100818102610100600160a81b031985161790945560405193909204169182907f8be0079c531659141344cd1fd0a4f28419497f9722a3daafe3b4186f6b6457e0905f90a35050565b61067c6106d7565b6001805460ff1916811790557f62e78cea01bee320cd4e420270b5ea74000d11b0c9f74754ebdbfc544b05a2583361059a565b60025f54036106d157604051633ee5aeb560e01b815260040160405180910390fd5b60025f55565b60015460ff16156101b05760405163d93c066560e01b815260040160405180910390fd5b6040516001600160a01b0384811660248301528381166044830152606482018390526107349186918216906323b872dd906084016105e4565b50505050565b60015460ff166101b057604051638dfc202b60e01b815260040160405180910390fd5b5f6107716001600160a01b038416836107be565b905080515f141580156107955750808060200190518101906107939190610982565b155b1561061657604051635274afe760e01b81526001600160a01b0384166004820152602401610340565b60606107cb83835f6107d2565b9392505050565b6060814710156107f75760405163cd78605960e01b8152306004820152602401610340565b5f80856001600160a01b0316848660405161081291906109a1565b5f6040518083038185875af1925050503d805f811461084c576040519150601f19603f3d011682016040523d82523d5f602084013e610851565b606091505b509150915061086186838361086b565b9695505050505050565b6060826108805761087b826108c7565b6107cb565b815115801561089757506001600160a01b0384163b155b156108c057604051639996b31560e01b81526001600160a01b0385166004820152602401610340565b50806107cb565b8051156108d75780518082602001fd5b604051630a12f52160e11b815260040160405180910390fd5b5f60208284031215610900575f80fd5b81356001600160a01b03811681146107cb575f80fd5b5f60208284031215610926575f80fd5b5035919050565b5f6020828403121561093d575f80fd5b5051919050565b634e487b7160e01b5f52601160045260245ffd5b8082018082111561052c5761052c610944565b808202811582820484141761052c5761052c610944565b5f60208284031215610992575f80fd5b815180151581146107cb575f80fd5b5f82515f5b818110156109c057602081860181015185830152016109a6565b505f92019182525091905056fea264697066735822122054517c1e4446ffaf8a4a89d8946d6fbc9118fbdfbfa35211bf5cdbeeb25c501e64736f6c63430008180033","linkReferences":{}},"methodIdentifiers":{"depositUSDTandReciveToken(uint256)":"d148e25f","getBalance(address)":"f8b2cb4f","owner()":"8da5cb5b","pause()":"8456cb59","paused()":"5c975abb","renounceOwnership()":"715018a6","tokenXBalances(address)":"3114ca69","transferOwnership(address)":"f2fde38b","unpause()":"3f4ba83a","usdtBalances(address)":"582489cb","withdraw(address)":"51cff8d9"},"id":42}