{"abi":[{"type":"constructor","inputs":[{"name":"_token","type":"address","internalType":"address"},{"name":"_expiryDuration","type":"uint256","internalType":"uint256"},{"name":"initialOwner","type":"address","internalType":"address"}],"stateMutability":"nonpayable"},{"type":"function","name":"beneficiaryVesting","inputs":[{"name":"","type":"address","internalType":"address"}],"outputs":[{"name":"amount","type":"uint256","internalType":"uint256"},{"name":"claimed","type":"bool","internalType":"bool"}],"stateMutability":"view"},{"type":"function","name":"commonExpiry","inputs":[],"outputs":[{"name":"","type":"uint256","internalType":"uint256"}],"stateMutability":"view"},{"type":"function","name":"getBeneficiaryAmount","inputs":[{"name":"_beneficiary","type":"address","internalType":"address"}],"outputs":[{"name":"","type":"uint256","internalType":"uint256"}],"stateMutability":"view"},{"type":"function","name":"getDifferenceTime","inputs":[],"outputs":[{"name":"","type":"uint256","internalType":"uint256"}],"stateMutability":"view"},{"type":"function","name":"getSupply","inputs":[{"name":"_tokenAddress","type":"address","internalType":"address"}],"outputs":[{"name":"","type":"uint256","internalType":"uint256"}],"stateMutability":"view"},{"type":"function","name":"lock","inputs":[{"name":"_amount","type":"uint256","internalType":"uint256"},{"name":"_beneficiary","type":"address","internalType":"address"}],"outputs":[],"stateMutability":"nonpayable"},{"type":"function","name":"owner","inputs":[],"outputs":[{"name":"","type":"address","internalType":"address"}],"stateMutability":"view"},{"type":"function","name":"pause","inputs":[],"outputs":[],"stateMutability":"nonpayable"},{"type":"function","name":"paused","inputs":[],"outputs":[{"name":"","type":"bool","internalType":"bool"}],"stateMutability":"view"},{"type":"function","name":"renounceOwnership","inputs":[],"outputs":[],"stateMutability":"nonpayable"},{"type":"function","name":"setDexAddress","inputs":[{"name":"_dexAddress","type":"address","internalType":"address"}],"outputs":[],"stateMutability":"nonpayable"},{"type":"function","name":"token","inputs":[],"outputs":[{"name":"","type":"address","internalType":"contract IERC20"}],"stateMutability":"view"},{"type":"function","name":"transferOwnership","inputs":[{"name":"newOwner","type":"address","internalType":"address"}],"outputs":[],"stateMutability":"nonpayable"},{"type":"function","name":"unpause","inputs":[],"outputs":[],"stateMutability":"nonpayable"},{"type":"function","name":"withdraw","inputs":[],"outputs":[],"stateMutability":"nonpayable"},{"type":"function","name":"withdrawEmergencyTokens","inputs":[{"name":"amount","type":"uint256","internalType":"uint256"}],"outputs":[],"stateMutability":"nonpayable"},{"type":"event","name":"OwnershipTransferred","inputs":[{"name":"previousOwner","type":"address","indexed":true,"internalType":"address"},{"name":"newOwner","type":"address","indexed":true,"internalType":"address"}],"anonymous":false},{"type":"event","name":"Paused","inputs":[{"name":"account","type":"address","indexed":false,"internalType":"address"}],"anonymous":false},{"type":"event","name":"Unpaused","inputs":[{"name":"account","type":"address","indexed":false,"internalType":"address"}],"anonymous":false},{"type":"event","name":"userWithdraw","inputs":[{"name":"beneficiary","type":"address","indexed":true,"internalType":"address"},{"name":"amount","type":"uint256","indexed":true,"internalType":"uint256"}],"anonymous":false},{"type":"event","name":"vestingLock","inputs":[{"name":"beneficiary","type":"address","indexed":true,"internalType":"address"},{"name":"tokenToReceive","type":"uint256","indexed":true,"internalType":"uint256"},{"name":"commonExpiry","type":"uint256","indexed":true,"internalType":"uint256"}],"anonymous":false},{"type":"error","name":"AddressEmptyCode","inputs":[{"name":"target","type":"address","internalType":"address"}]},{"type":"error","name":"AddressInsufficientBalance","inputs":[{"name":"account","type":"address","internalType":"address"}]},{"type":"error","name":"EnforcedPause","inputs":[]},{"type":"error","name":"ExpectedPause","inputs":[]},{"type":"error","name":"FailedInnerCall","inputs":[]},{"type":"error","name":"OwnableInvalidOwner","inputs":[{"name":"owner","type":"address","internalType":"address"}]},{"type":"error","name":"OwnableUnauthorizedAccount","inputs":[{"name":"account","type":"address","internalType":"address"}]},{"type":"error","name":"ReentrancyGuardReentrantCall","inputs":[]},{"type":"error","name":"SafeERC20FailedOperation","inputs":[{"name":"token","type":"address","internalType":"address"}]}],"bytecode":{"object":"0x60c060405234801561000f575f80fd5b50604051610e4d380380610e4d83398101604081905261002e9161011d565b60015f819055805460ff19169055806001600160a01b03811661006a57604051631e4fbdf760e01b81525f600482015260240160405180910390fd5b610073816100a9565b506001600160a01b038316610086575f80fd5b6001600160a01b03831660805261009d8242610156565b60a0525061017b915050565b600180546001600160a01b03838116610100818102610100600160a81b031985161790945560405193909204169182907f8be0079c531659141344cd1fd0a4f28419497f9722a3daafe3b4186f6b6457e0905f90a35050565b80516001600160a01b0381168114610118575f80fd5b919050565b5f805f6060848603121561012f575f80fd5b61013884610102565b92506020840151915061014d60408501610102565b90509250925092565b8082018082111561017557634e487b7160e01b5f52601160045260245ffd5b92915050565b60805160a051610c806101cd5f395f81816101f501528181610292015281816102c2015281816103a30152818161058e015261071101525f818161026d015281816104df015261055b0152610c805ff3fe608060405234801561000f575f80fd5b50600436106100fb575f3560e01c8063715018a611610093578063a05bdb8711610063578063a05bdb87146101f0578063f2fde38b14610217578063f946755d1461022a578063fc0c546a14610268575f80fd5b8063715018a61461018e5780638456cb59146101965780638da5cb5b1461019e5780639054fddb146101c8575f80fd5b80633f4ba83a116100ce5780633f4ba83a1461014a5780635c975abb1461015257806362c949381461016857806366dfbfb41461017b575f80fd5b80630b3515a4146100ff5780631fd433aa1461011a57806326f9a9521461012d5780633ccfd60b14610142575b5f80fd5b61010761028f565b6040519081526020015b60405180910390f35b610107610128366004610b54565b6102eb565b61014061013b366004610b54565b610359565b005b610140610383565b61014061053e565b60015460ff166040519015158152602001610111565b610140610176366004610b6d565b61054e565b610140610189366004610b84565b610584565b61014061076c565b61014061077d565b60015461010090046001600160a01b03165b6040516001600160a01b039091168152602001610111565b6101076101d6366004610b54565b6001600160a01b03165f9081526003602052604090205490565b6101077f000000000000000000000000000000000000000000000000000000000000000081565b610140610225366004610b54565b61078d565b610253610238366004610b54565b60036020525f90815260409020805460019091015460ff1682565b60408051928352901515602083015201610111565b6101b07f000000000000000000000000000000000000000000000000000000000000000081565b5f7f000000000000000000000000000000000000000000000000000000000000000042106102bc57505f90565b6102e6427f0000000000000000000000000000000000000000000000000000000000000000610bc2565b905090565b6040516370a0823160e01b81523060048201525f906001600160a01b038316906370a0823190602401602060405180830381865afa15801561032f573d5f803e3d5ffd5b505050506040513d601f19601f820116820180604052508101906103539190610bd5565b92915050565b6103616107c7565b600280546001600160a01b0319166001600160a01b0392909216919091179055565b61038b6107fa565b610393610822565b335f9081526003602052604090207f000000000000000000000000000000000000000000000000000000000000000042116104155760405162461bcd60e51b815260206004820152601d60248201527f546f6b656e732068617665206e6f74206265656e20756e6c6f636b656400000060448201526064015b60405180910390fd5b600181015460ff161561046a5760405162461bcd60e51b815260206004820181905260248201527f546f6b656e73206861766520616c7265616479206265656e20636c61696d6564604482015260640161040c565b6001818101805460ff191690911790558054806104d75760405162461bcd60e51b815260206004820152602560248201527f6e6f74206861766520616d6f756e74206f6620746f6b656e7320746f20776974604482015264686472617760d81b606482015260840161040c565b5f82556105057f00000000000000000000000000000000000000000000000000000000000000003383610846565b815460405133907f3e458a8e29bab8625f68d7126a788b1dfe3ac22fbe1aae4ff144fa17113e2953905f90a3505061053c60015f55565b565b6105466107c7565b61053c61089d565b6105566107c7565b6105817f00000000000000000000000000000000000000000000000000000000000000003383610846565b50565b61058c610822565b7f000000000000000000000000000000000000000000000000000000000000000042106105fb5760405162461bcd60e51b815260206004820152601960248201527f546f6b656e732068617665206265656e20756e6c6f636b656400000000000000604482015260640161040c565b60015461010090046001600160a01b03166001600160a01b0316336001600160a01b0316148061063557506002546001600160a01b031633145b6106705760405162461bcd60e51b815260206004820152600c60248201526b155b985d5d1a1bdc9a5e995960a21b604482015260640161040c565b6002546001600160a01b03166106d45760405162461bcd60e51b815260206004820152602360248201527f52656d656d62657220736574207468652041646472657373206f662074686520604482015262088caf60eb1b606482015260840161040c565b6001600160a01b0381165f908152600360205260409020600181015460ff1661070f5782815f015f8282546107099190610bec565b90915550505b7f000000000000000000000000000000000000000000000000000000000000000083836001600160a01b03167f1ed2932eded5ea200ecd1bba8596bbef12486c805b975ed38d573b59f12eedbe60405160405180910390a4505050565b6107746107c7565b61053c5f6108ef565b6107856107c7565b61053c610948565b6107956107c7565b6001600160a01b0381166107be57604051631e4fbdf760e01b81525f600482015260240161040c565b610581816108ef565b6001546001600160a01b0361010090910416331461053c5760405163118cdaa760e01b815233600482015260240161040c565b60025f540361081c57604051633ee5aeb560e01b815260040160405180910390fd5b60025f55565b60015460ff161561053c5760405163d93c066560e01b815260040160405180910390fd5b604080516001600160a01b038416602482015260448082018490528251808303909101815260649091019091526020810180516001600160e01b031663a9059cbb60e01b179052610898908490610983565b505050565b6108a56109e4565b6001805460ff191690557f5db9ee0a495bf2e6ff9c91a7834c1ba4fdd244a5e8aa4e537bd38aeae4b073aa335b6040516001600160a01b03909116815260200160405180910390a1565b600180546001600160a01b03838116610100818102610100600160a81b031985161790945560405193909204169182907f8be0079c531659141344cd1fd0a4f28419497f9722a3daafe3b4186f6b6457e0905f90a35050565b610950610822565b6001805460ff1916811790557f62e78cea01bee320cd4e420270b5ea74000d11b0c9f74754ebdbfc544b05a258336108d2565b5f6109976001600160a01b03841683610a07565b905080515f141580156109bb5750808060200190518101906109b99190610bff565b155b1561089857604051635274afe760e01b81526001600160a01b038416600482015260240161040c565b60015460ff1661053c57604051638dfc202b60e01b815260040160405180910390fd5b6060610a1483835f610a1b565b9392505050565b606081471015610a405760405163cd78605960e01b815230600482015260240161040c565b5f80856001600160a01b03168486604051610a5b9190610c1e565b5f6040518083038185875af1925050503d805f8114610a95576040519150601f19603f3d011682016040523d82523d5f602084013e610a9a565b606091505b5091509150610aaa868383610ab4565b9695505050505050565b606082610ac957610ac482610b10565b610a14565b8151158015610ae057506001600160a01b0384163b155b15610b0957604051639996b31560e01b81526001600160a01b038516600482015260240161040c565b5080610a14565b805115610b205780518082602001fd5b604051630a12f52160e11b815260040160405180910390fd5b80356001600160a01b0381168114610b4f575f80fd5b919050565b5f60208284031215610b64575f80fd5b610a1482610b39565b5f60208284031215610b7d575f80fd5b5035919050565b5f8060408385031215610b95575f80fd5b82359150610ba560208401610b39565b90509250929050565b634e487b7160e01b5f52601160045260245ffd5b8181038181111561035357610353610bae565b5f60208284031215610be5575f80fd5b5051919050565b8082018082111561035357610353610bae565b5f60208284031215610c0f575f80fd5b81518015158114610a14575f80fd5b5f82515f5b81811015610c3d5760208186018101518583015201610c23565b505f92019182525091905056fea2646970667358221220212407809c7e6152d5d4daf22675d8bc57cb8caac5d52bf09175e863c7a436e264736f6c63430008180033","linkReferences":{}},"methodIdentifiers":{"beneficiaryVesting(address)":"f946755d","commonExpiry()":"a05bdb87","getBeneficiaryAmount(address)":"9054fddb","getDifferenceTime()":"0b3515a4","getSupply(address)":"1fd433aa","lock(uint256,address)":"66dfbfb4","owner()":"8da5cb5b","pause()":"8456cb59","paused()":"5c975abb","renounceOwnership()":"715018a6","setDexAddress(address)":"26f9a952","token()":"fc0c546a","transferOwnership(address)":"f2fde38b","unpause()":"3f4ba83a","withdraw()":"3ccfd60b","withdrawEmergencyTokens(uint256)":"62c94938"},"id":44}